:020000040010EA
:10000000000000EB250000EB2C008FE2000C90E8D4
:1000100000A08AE000B08BE001704AE20B005AE1D8
:100020000000001A1D0000EB0F00BAE818E04FE2D4
:10003000010013E303F0471013FF2FE1EC01000070
:10004000FC0100000030B0E30040B0E30050B0E33A
:100050000060B0E3102052E27800A128FCFFFF8A84
:10006000822EB0E13000A128003081451EFF2FE133
:1000700001C08FE21CFF2FE11FB500F0C7F8059803
:1000800086460FBC009C02B07047000001C08FE2A2
:100090001CFF2FE130B47546AE4630BC70470000FF
:1000A000320000EB0210A0E1F0FFFFEB1CC09FE567
:1000B0000FC08CE001001CE30DE08F120FE0A001E7
:1000C0001CFF2FE101C08FE21CFF2FE100F080F840
:1000D000680000007847C04603002DE9EAFFFFEB07
:1000E0000300BDE8420000EB0C009FE50C109FE50B
:1000F00004209FE508309FE51EFF2FE160002000EF
:1001000060042000600020000000A0E3000000EA7E
:10011000010080E27D0E50E3FCFFFF3A1EFF2FE15D
:100120001E07A0E30010A0E3000C01E5F00B01E5C1
:10013000000A01E5F00901E5090000EA1E07A0E355
:100140000010A0E3D00B01E5CC0901E5EDFFFFEBCA
:100150001E07A0E30010A0E3CC0B01E5D00901E5E8
:10016000E8FFFFEBF4FFFFEA7047704770470000BD
:100170000E50A0E1180000EB05E0A0E10050B0E156
:100180000D10A0E10A30A0E10700C0E300D0A0E11B
:1001900060D08DE220402DE9D2FFFFEB2040BDE88A
:1001A0000060A0E30070A0E30080A0E300B0A0E343
:1001B0000710C1E305C0A0E1C009ACE8C009ACE884
:1001C000C009ACE8C009ACE801D0A0E11EFF2FE1F6
:1001D0000400C046C0462000FFF77CFF00009FE5FA
:1001E0001EFF2FE10000200000009FE51EFF2FE111
:1001F0000400200001C08FE21CFF2FE101491820FC
:10020000ABDFFEE7260002001EFF2FE17847C04665
:1002100010402DE9F3FFFFEB0010A0E3001080E594
:100220001040BDE81EFF2FE1380210000000200042
:08023000E80400004400100086
:0400000500100000E7
:00000001FF
