:020000040010EA
:1000000018F09FE518F09FE518F09FE518F09FE5C0
:1000100018F09FE50000A0E120FF1FE520FF1FE58D
:10002000580010004000100044001000480010006C
:100030004C001000000000005000100054001000A0
:10004000FEFFFFEAFEFFFFEAFEFFFFEAFEFFFFEA18
:10005000FEFFFFEAFEFFFFEAC0009FE5C0109FE53C
:10006000081080E5BC009FE5BC109FE5601080E5AE
:10007000B8009FE50219A0E3041080E5B0009FE5F9
:10008000B0109FE5201080E5682090E5012012E285
:10009000FCFFFF0AA0109FE52C1080E5682090E58A
:1000A000042012E2FCFFFF0A0710A0E31C1001E28B
:1000B000301080E5682090E5082012E2FCFFFF0A7E
:1000C0000710A0E3301080E5682090E5082012E2D8
:1000D000FCFFFF0A64009FE5DBF021E300D0A0E114
:1000E000000040E2D7F021E300D0A0E1000040E2B0
:1000F000D1F021E300D0A0E1000040E2D2F021E302
:1001000000D0A0E1800040E2D3F021E300D0A0E1E4
:10011000080040E210F021E324009FE510FF2FE1EA
:1001200000FDFFFF010400A500FFFFFF00013200FA
:1001300040FDFFFF00FCFFFF01060000051C191039
:10014000D0042000480110000CD09FE54A0300EBCA
:1001500000009FE510FF2FE1310710004804200048
:100160000020EA490880EA490870EA490870EA482C
:10017000EA4908600020EA490860EA4908607047D7
:1001800010B5E949002000F0DDFC10BC08BC1847A0
:1001900010B5E6488088082801DD082401E0E3481E
:1001A0008488E24822000168802000F0E4FC04001A
:1001B000DE4800680019DD49086008008088001BDF
:1001C000888010BC08BC184710B5D84801680020CA
:1001D00000F0B8FC0400D54800680019D349086055
:1001E00008008088001B888010BC08BC184710B528
:1001F00000221100802000F0BEFC10BC08BC184793
:1002000010B5CB49002000F09DFC10BC08BC18477D
:1002100010B50400230001F05FF908F405F3F2F4CF
:10022000F4F1F0F4FFF7ACFFBF490978C80900F01A
:10023000E1FBBD48C088BD498880BB4800784006C6
:10024000800F02D001287DD19BE0B74840780300A1
:1002500001F042F90C070F941894213840475B6570
:100260008C9400F0D9FE002800D1E5E0FFF790FF64
:1002700085E0002000F032FF002800D1DCE0FFF72D
:10028000B6FF7CE0012000F029FF002800D1D3E078
:10029000FFF7ADFF73E0C046A3480078C006C00E6C
:1002A00006D1A1488078802108439949087001E06F
:1002B000002001E0C0460120002800D1BCE0FFF78B
:1002C00096FF5CE000F01CFE002800D1B4E0FFF7D0
:1002D0005FFF54E0002000F0F8FB00209349888085
:1002E0004DE0C04690480078C006C00E03D1894852
:1002F0008E49086001E0002001E0C046012000288E
:1003000000D199E0FFF744FF39E000F061FF0028D9
:1003100000D191E0FFF76BFF00F02EF92FE0C0460F
:1003200081480078C006C00E012815D179480078B0
:1003300000280ED07C4800797E490978884208DA86
:10034000794800E077E000797B49401877490860F8
:1003500001E0002004E001E0002001E0C0460120AF
:10036000002800D168E0FFF713FF08E001F010F863
:10037000002800D160E0FFF73AFF00E05CE0C046F3
:1003800061E069480078C006C00E04D0012803D09F
:1003900002284ED14CE04FE063480079002846D156
:1003A00061484078030001F097F80C4107162E4190
:1003B000414141411221394100F018F9002805D08E
:1003C0005B485A490860FFF7E3FE33E02EE05848E7
:1003D000564908602EE000F039F9002805D054484D
:1003E00052490860FFF7D4FE24E01FE000F036F920
:1003F000002807D0FFF7FBFE1CE07EE079E060E01C
:1004000023E07EE012E000F031F9002805D04848F2
:1004100046490860FFF7BCFE0CE007E000F02CF94D
:10042000002802D0FFF7E3FE04E0C046C04603E028
:1004300002E001E007E0C046802000F046FB00201B
:100440003A498880C046C0465BE037480078C0091A
:1004500034D136488088002832D0FFF7B5FE3348C3
:10046000808800282CD1304800784006800F02D0C8
:10047000012821D100E0DFE72B480078C006C00E3C
:1004800004D0012803D0022814D112E0D4E7264872
:10049000007900280CD124484078092807D100F0C1
:1004A000C4F8002802D0FFF7A2FE04E0C046C04610
:1004B000C2E7C1E7C0E700E0BEE701E0FFF7A0FE4A
:1004C0001FE019480078C009012802D1FFF760FE3B
:1004D0000EE00F4800788021084209D00C480078CF
:1004E0004006400E0A4908700800007800F034FA0F
:1004F00007E0002000F0F4FA03E0802000F0F0FABA
:10050000C046C04610BC08BC1847000000002000D0
:100510000200200003002000010001000400200070
:10052000080020000C002000240020001C002000F7
:1005300012002000100020001100200001C08FE2F6
:100540001CFF2FE110B5FFF70BFE0320400500F064
:10055000EBF810BC08BC184710B50120800500F06E
:10056000DFF810BC08BC184710B50120800500F06A
:10057000DBF810BC08BC184710B51A4800780028F2
:100580000BD000F089F804221749832000F0F3FA19
:100590000120400500F0C4F803E00120400500F010
:1005A000C3F810BC08BC18477047704710B504006A
:1005B000032C07D100F070F804220B49832000F0CF
:1005C000DAFAC046C04610BC08BC184770477047EE
:1005D0007047704770477047704770477047704763
:1005E00070477047030020003800200010B52548F0
:1005F000C078012804D002280ED0032812D10FE0C1
:1006000000F04AF8002404E01F48005D1F49085527
:10061000641C042CF8D305E0002010BC08BC18476B
:100620000020FAE7C0460120F7E71648C078012805
:1006300004D0022804D0032806D103E0002070472C
:100640000020FCE70020FAE70120F8E70D48807859
:100650000F49085C0D490870012070470948C078AF
:10066000084989780A4A505401207047094800789F
:1006700006490870012070470248807805490870D3
:1006800001207047240020003800200012002000C4
:100690002D0020002C0020003B490968C86B012177
:1006A0000906084225D04910084203D1FC21374AE7
:1006B00091700AE00121C906084203D10421334A9E
:1006C000917002E00021314A9170012149060842EF
:1006D00003D1FC212D4A51701EE0012189060842F8
:1006E00003D10421294A517016E00021274A517094
:1006F00012E001218906084203D10221234A117028
:100700000AE001214906084203D101211F4A117064
:1007100002E000211D4A117000211C4AD17070476F
:100720001B4909684863704719490968086370479D
:10073000042018490861082008610F20C0041449EA
:100740000968086012490968086111490968086365
:1007500000F0C7F8012000F0D5F814E00A4800685E
:10076000C46B01200006044203D14011FFF7D8FFFB
:1007700003E00120C004FFF7D7FF002400E0641C61
:1007800005488442FBD3E9E734002000380020000C
:100790003000200000FCFFFF10270000CFC08FE2D8
:1007A0001CFF2FE170B4030000241A07120F9600FB
:1007B000FA4D2D683035A8594F25284305000D43C3
:1007C00028009600F54D2D683035A85104E025002D
:1007D000641C642D00D907E09600F04D2D6830357B
:1007E000AD590D408D42F2D1C04670BC704770B417
:1007F000030000241A07120F9600E84D2D683035CB
:10080000A8594F25284305008D4328009600E34D45
:100810002D683035A85104E02500641C642D00D9F2
:1008200007E09600DD4D2D683035AD590D408D4205
:10083000F2D0C04670BC704700B501000A07120F25
:10084000130000F049FE06040607080A0B0E0820F4
:1008500009E0C046C046402005E0C046FF20013008
:1008600001E00020C046C04608BC184770477047EA
:10087000704710B50020C94909684860FF20013061
:10088000C649096888600020C043C44909680862F5
:1008900000240BE00021A200C048006830308150E5
:1008A0000020BF490855BF490855641C042CF1D3EA
:1008B0000020C043B949096888620020B749096827
:1008C00088620F200002B549096808610120B34918
:1008D00009680861C1030020FFF764FF10BC08BC71
:1008E00018478020B049086000010861272089006E
:1008F000C862AE49AE48C1620120C002AC49803135
:1009000008627047002809D0A4490968496FFF228E
:1009100001329143A14A1268516708E09F49096872
:10092000496FFF22013211439C4A12685167704798
:10093000002808D099490968496810221143974A4C
:100940001268516007E0954909684968102291438F
:10095000924A1268516070470106090EFF22013267
:1009600011438E4A12689160002808D08B490968AB
:10097000496801221143894A1268516007E087499A
:100980000968496849084900844A126851607047FB
:10099000002808D0814909684968022211437F4A2A
:1009A0001268516007E07D49096849680222914355
:1009B0007A4A126851607047F8B50400A0780707BA
:1009C0003F0FE0788607B60FA078C511A800304326
:1009D000000200903800FFF72FFF617922790902A9
:1009E0001143884203DB38000099FFF7DBFEF8BCB7
:1009F00008BC184710B50400002C04D0802100204A
:100A0000FFF7D0FE03E080210020FFF7F0FE042175
:100A10000020FFF7ECFE10BC08BC184770B50400BE
:100A200025072D0F0120A8405C49096808610121B4
:100A3000C9032800FFF7B6FE70BC08BC184770B5A4
:100A4000040025072D0F0121C9032800FFF7CFFE61
:100A50000120A84051490968486170BC08BC18478A
:100A600070B505002C07240F6F212000FFF7BFFE93
:100A7000A1004A48006830304058102108420FD089
:100A80002000FFF7B4FE0120A0400621084207D055
:100A900010212000FFF786FE10212000FFF7A7FE9F
:100AA0003E480068806A0121A14008433B4909682B
:100AB00088623A480068816A0120A0408143374833
:100AC0000068816270BC08BC184770B50400250737
:100AD0002D0F20212800FFF765FE70BC08BC1847C9
:100AE00070B505002C07240F20212000FFF77FFEA2
:100AF0002A480068806A0121A14008432749096803
:100B0000886226480068816A0120A040814323480A
:100B10000068816270BC08BC18470107090F1F4AB2
:100B20001268926A01238B401A431C4B1B689A621D
:100B30001A4A1268936A01228A409343174A12683C
:100B40009362704770B402001407240FA600134D7F
:100B50002D683035AD596D01680D002307E0A60002
:100B60000E4D2D685035AD590D70491C5B1C8342EC
:100B7000F5D370BC7047F7B50D0017000098040757
:100B8000240FA10005480068303040582021084259
:100B900010D03800FEBC08BC184700003C00200004
:100BA000400020004400200000FCFFFF4C0C10001F
:100BB00080F0FFFF2348005D002801D00020E9E716
:100BC000A1002148006830304058102108420AD066
:100BD0000120A0400621084203D0012019490855F0
:100BE00001E00020D6E7002607E02978A200164899
:100BF0000068503081506D1C761CBE42F5D3114800
:100C0000005D002803D110212000FFF7CBFD380044
:100C1000C0E7C0460C490968096803221204114262
:100C2000F8D009490968096801225204114205D027
:100C30000549096809684805400D01E00020C043E6
:100C400070470000440020003C002000FF502DE9C8
:100C500010029FE5000090E51C5090E5010A15E3A5
:100C60000500000ACCFEFFEB33FEFFEB010AA0E318
:100C7000F0119FE5001091E5200081E5010C55E39E
:100C80000500001A010CA0E3D8119FE5001091E5C2
:100C9000200081E5820000EB840000EB020C15E3EC
:100CA0000500000A840000EB860000EB020CA0E3C4
:100CB000B0119FE5001091E5200081E5010B15E3DF
:100CC0000400000A820000EB010BA0E394119FE5F1
:100CD000001091E5200081E5020B15E30300000AF6
:100CE000020BA0E37C119FE5001091E5200081E557
:100CF0000040A0E3550000EA0100A0E3100415E164
:100D00005100000A5C019FE5000090E5300080E2A0
:100D1000046190E7040016E30800000A48019FE51B
:100D2000040190E7000050E30400000A38019FE549
:100D3000041190E70100A0E30FE0A0E111FF2FE113
:100D400028019FE50400D0E724119FE5007191E799
:100D5000070016E11400000A0C019FE5040190E76A
:100D6000000050E30400000AFC009FE5041190E736
:100D70000200A0E30FE0A0E111FF2FE10710A0E1C6
:100D80000400A0E1550000EB0100A0E31004A0E185
:100D9000060010E30400000AD0009FE50400D0E73D
:100DA000010020E2C4109FE50400C1E7010016E342
:100DB0001500000ABC009FE50400D0E7000050E3E6
:100DC0000500000A1010A0E30400A0E1460000EBBB
:100DD0000000A0E39C109FE50400C1E788009FE5A8
:100DE000040190E7000050E30400000A78009FE54A
:100DF000041190E70300A0E30FE0A0E111FF2FE151
:100E00000110A0E30400A0E1340000EB080016E3A9
:100E10000D00000A070C16E30800001A48009FE5C1
:100E2000040190E7000050E30400000A38009FE549
:100E3000041190E70700A0E30FE0A0E111FF2FE10C
:100E40000810A0E30400A0E1240000EB014084E2CC
:100E5000040054E3A7FFFF3A0000A0E3D00E00E532
:100E6000FF50BDE804F05EE23C0020000C161000CC
:100E700040002000501610004400200001C08FE206
:100E80001CFF2FE1054C064D04E020000FC800F0C8
:100E900021FB1034AC42F8D300F02EF858161000A5
:100EA0007816100000C09FE51CFF2FE171081000AC
:100EB00000C09FE51CFF2FE15905100000C09FE511
:100EC0001CFF2FE16F08100000C09FE51CFF2FE101
:100ED0006905100000C09FE51CFF2FE16D081000A0
:100EE00000C09FE51CFF2FE1EF07100000C09FE549
:100EF0001CFF2FE1A50710007847C04693FCFFEACE
:100F000010B43E480078C006C00E02D001286AD155
:100F100042E03A48C078012804D0022807D00328CC
:100F200036D120E03648374C2060122232E0364974
:100F3000002308E00878002804D0C8788C780002E4
:100F4000204341185B1C2D4880789842F2D10878E4
:100F5000002801D110BC70472A480160C8788C78FD
:100F60000202224316E02949002305E00878002800
:100F700001D0087841185B1C204880789842F5D150
:100F80000878002800D1E5E71E4801600A7801E0F2
:100F90000020DFE7C04628E01848C078212804D0A8
:100FA00022280ED023281AD117E0144800790028EF
:100FB00001D00020CEE714481230124C20600922E4
:100FC0000FE00E480079002801D00020C2E7104849
:100FD0000C4C20600F48028803E00020BAE7002094
:100FE000B8E7C04601E00020B4E7C0460548808865
:100FF000904201D9034CA2800120ABE724002000DD
:101000006A1510001C0020007C1510009F151000B0
:10101000341510006815100028480078C006C00E6E
:1010200004D0012806D0022842D117E02448254BDD
:1010300018603FE02448007800280CD01F48007951
:10104000224B1B78984206DA0020214B18801800AA
:101050001C4B186001E0002070472BE01748017915
:101060008F2319408020014204D00B071B0F400240
:10107000984001E0012088400200134800780028D1
:1010800002D10807000F10D11248006810420CD09E
:1010900011480068104201D0012000E000200C4BF4
:1010A00018801800074B186001E00020D4E701E029
:1010B0000020D1E7C0460120CEE700002400200038
:1010C000000020001C002000030020001000200071
:1010D00012002000040020000800200070B5060067
:1010E00035480078C006C00E04D0012820D0022860
:1010F0005DD11FE030484088012814D1002E08D06F
:10110000FFF716FC2D480088022108432B49088070
:101110000DE00020FFF70CFC2848008802218843DE
:101120002649088003E0002070BC08BC184740E056
:101130000020F9E7204804798F210C4080200442E8
:1011400004D02107090F4002884001E00120A0409F
:1011500005001B480078002826D02007000F23D068
:101160001848006828421FD013484088002819D129
:10117000002E08D02000FFF7A8FC13480068284381
:101180001149086012E011480068284201D001208E
:10119000CAE72000FFF7A4FC0B480068A8430A49EF
:1011A000086003E00020BFE70020BDE701E0002069
:1011B000BAE7C0460120B7E7240020000000200065
:1011C0000300200004002000080020000C00200084
:1011D000F8B5002664480078C006C00E6FD162489A
:1011E000807800286CD0614D81E06878022804D0B6
:1011F000042854D0052876D153E068795A49897873
:10120000884245D158488078594908702879594909
:101210000870002403E0002057490855641C002C86
:10122000F9D0012415E00120A04054490968084282
:1012300002D02000FFF703FC01200004A0404F492A
:101240000968084204D0802121430800FFF7F7FB1A
:10125000641C102CE7D34A484849086000204949DB
:101260000860494908600120FFF792FBE8794021B6
:10127000084206D0454800880121084343490880B8
:101280000CE042480088400840004049088005E0E2
:10129000E878A97800020843451928E023E0EE78B1
:1012A00021E0002E1ED1A8788F2108400400802064
:1012B000044206D02107090F4002884003E04DE0B8
:1012C0001AE00120A04007002C48006838432B4951
:1012D00008602800FFF770FB2000FFF79FFB20004D
:1012E000FFF7BEFBC046C04628784519C04628789F
:1012F000002800D079E726E000201D49087001246D
:1013000015E00120A0401D490968084202D02000D4
:10131000FFF795FB01200004A04018490968084226
:1013200004D0802121430800FFF789FB641C102CA6
:10133000E7D3134811490860002012490860124998
:101340000860FFF725FB084880780949097888423A
:1013500003D00020F8BC08BC184701E00020F9E7E2
:10136000C0460120F6E70000240020007C15100094
:1013700003002000100020001100200004002000C5
:1013800001000100080020000C00200000002000E7
:10139000F0B585B0002700200390029001904748E7
:1013A0000078C006C00E01287ED14548007800288C
:1013B00003D105B0F0BC08BC184700200090414C98
:1013C00071E06078022804D004280ED0052866D188
:1013D00022E060793A490978884205D0E078A1781E
:1013E0000002084304195EE059E0A778E078039012
:1013F0000020019031480079B8420CD12F48817803
:101400000398814207D1012000902F48C05D0290CF
:101410002D490398C85542E028480079B8423DD18B
:10142000A6788F210E408020064204D03107090F94
:101430004002884001E00120B04005001F4881784B
:101440000398814216D12148006828431F4908604B
:101450001F480068A8431E4908602000FFF7ACFA47
:101460003000FFF7DBFA3000FFF7FAFA0198284363
:10147000019013E00299039888420FD10198284205
:101480000CD112480068A843104908601048006851
:10149000A8430F4908603000FFF7D1FAC046C046A4
:1014A00020780419C04600E003E02078002888D1A5
:1014B00001E000207DE7C04600987AE72400200084
:1014C000030020007C151000110020000400200003
:1014D00008002000184700007847C04601C05EE5BC
:1014E0000C0053E10100003A0C30DEE7000000EA96
:1014F0000330DEE783C08EE01CFF2FE1020000EA2C
:10150000043090E4042042E2043081E4000052E31D
:10151000FAFFFF1A1EFF2FE11EFF2FE10000A0E3DC
:10152000000052E30420421204008114FBFFFF1A62
:101530001EFF2FE105010902A1010901A100050912
:1015400019012903150025019503750181029501F3
:101550007505810105010930093109381581257F9B
:10156000750895038106C0C0340012010002000016
:10157000000851C2021A00010102030109022200FF
:101580000101008032090400000103010204092165
:101590000001000122340007058303040020000439
:1015A0000309041C034B00650069006C0020005314
:1015B000006F00660074007700610072006500260D
:1015C000034100540039003100530041004D003701
:1015D0000058002D0045004B0020004D006F0075A5
:1015E00000730065001A0330003000300031004104
:1015F0000030003000300030003000300030000C8F
:10160000034D006F007500730065000011021000AB
:101610000000000000000000AD0510000000000008
:1016200000000000000000000000000000000000BA
:1016300000000000000000000000000000000000AA
:101640000000000000000000000000000600000094
:10165000020000004000000078161000000020008A
:1016600048000000FC141000C016100048002000C4
:10167000880400001C15100000000000000000009D
:10168000000000000000000000000000000000005A
:10169000000000000000000000000000000000004A
:1016A000000000000000000000F6FFFF00F6FFFF52
:1016B000000000000000FBFF000000000000000030
:04000005001001489E
:00000001FF
