:060000000C9448000C9472
:1000060000000C9400000C9400000C9400000C946A
:1000160000000C9400000C9400000C9400000C945A
:1000260000000C9400000C9400000C9400000C944A
:1000360000000C9400000C9400000C9477000C94C3
:1000460000000C9400000C9400000C940000102793
:10005600E80364000A00010000100001100001001E
:10006600000000006164633A2025640054656D70E9
:100076002049733A2564204F430080C004000400E1
:1000860066000200760280000000F894EE27ECBBC2
:10009600F1E0F5BFE5BFF8E1F1BDE1BD8DE0A2E01D
:1000A600BB27ED938A95E9F780E098E0A0E6ED930B
:1000B6000197E9F7E2E8F0E085919591009761F004
:1000C600A591B59105901590BF01F00105900D928F
:1000D6000197E1F7FB01F0CFEFE5EDBFE8E0EEBFFA
:1000E600C0E6D2E00C949600EA93FA93E4B1F5B137
:1000F600E0937402F0937502F991E9911895AA9329
:10010600E881E06CE7B98BE18A95F1F7E5B7EF781E
:10011600E069E5BF8895EF77E5BFE0917402F0915D
:1001260075020C943703E0E0EBBBEABBE8BBE7BB28
:10013600E5BBE4BBE2BBE1BBE3BFE2BFECBFEFBDA7
:10014600EEBDEDBDECBDE7BDE6BDEBBDEABDE9BD6F
:10015600E8BDE2BDE5BDE4BDE3BDE5BFE4BFE9BF83
:10016600EAB9E0E8E8B9E0E0E0BFE0ECE7B9EFE8DB
:10017600E6B9E0E0EDB9E6BFA0E10E940A03789493
:10018600A0E0BDDF2F01E0E0EA93A1E00E94520368
:10019600EAE6F0E0FA93EA93F2010E945903D39457
:1001A600640C751CE5E0ED1549F4D301E5E0F0E0DB
:1001B6000E94CD035F01DD2466247724BA2DA0E0DA
:1001C600E0E0F4E00E94CD034F010E94D202E0E09D
:1001D600EA93A0E00E945203E2E7F0E0FA93EA9382
:1001E600F4010E945903CCCFFFCFBA93AA931A9376
:1001F6000A93AA81BB8112960E94E003309759F1B7
:10020600AA81BB8114960E94E0038F01309761F0AA
:100216000230E0E01E07F0F0F80131978F01AA8165
:10022600BB811496ED93FC93AA81BB811296ED9146
:10023600FD913196FE93EE933197AC81A083AA810E
:10024600BB810E94E003FF232AF0ED91FD913196D8
:10025600FE93EE9306C0AA81BB81EFEFFFEFED930D
:10026600FC931981088125960895BA93AA93269737
:100276000E94ED0310E0AC85BD85E0E0F0E0ED9373
:10028600FC93EA89FB893196EA8BFB8B3197E491E3
:100296002E2FE03011F40C946702E12FE03039F490
:1002A600253211F411E002C00E9469030CC1E1304D
:1002B600A9F4253219F40E94690304C112E040E052
:1002C60000E02D3211F401E0FEC02B3211F44BE2B6
:1002D600FAC0203211F440E2F6C002C0E23039F42E
:1002E60050E013E0203311F40068EDC004C0E330A1
:1002F60011F00C946602203310F02A3308F007C080
:10030600AAE05A9F502DE22FE0535E0FDCC0E22F89
:10031600E33649F40E947003E889F989A481AA9317
:100326000E947603CFC0E33741F40E9470030E9417
:100336007C030E9439031E2F0AC0E03761F40E9435
:1003460070030E947C030E9445031E2F0860026012
:100356000F7730E035C0E43611F0E93611F4046069
:1003660002C0E53731F4E4E5F0E0EE83FF8315E003
:100376000DC0E83511F4086004C0E83711F00C949C
:100386006502EEE5F0E0EE83FF8314E002FF14C0A1
:100396000E9470030E948603AB85AA233AF4EA857D
:1003A600FB850E94B103EA87FB874DE2403011F0DE
:1003B6001F5F01C00B7F04C00E9470030E9486036A
:1003C60000FD11C0151778F407FF08C002FF04C02E
:1003D6000B7F242F115001C020E301C020E20E94B0
:1003E60069035150EFCF312F01FF17C03030A1F014
:1003F60003FF06C0EE81FF812591EE83FF8305C0D2
:10040600AE81BF812D91AE83BF830E9469035030B8
:1004160009F051503150EACF4BC020E3EE81FF8105
:100426000E94E403E887F987EE81FF813296EE8326
:10043600FF83E885F985AA85BB85AE17BF0750F00F
:100446002F5FA885B985EA85FB85EA1BFB0BEA8742
:10045600FB87EFCF2A3328F003FF02C0295F01C0D4
:10046600295D04FD1AC0213320F4A885B9851197AA
:1004760009F409C0531710F000FF01C013C020E2B1
:1004860007FF0BC020E3006102FF07C00B7F4A9302
:100496000E947603503009F051500E946903503093
:1004A60009F051503150A885B985129708F0B5CF9B
:1004B60000FF08C0503031F05150E0E2EA930E944C
:1004C6007603F8CF10E0DDCEAC85BD850E94E00353
:1004D6000E94F40364960895FF92F82E26970E94D0
:1004E600EF030E948E03309719F4EFEFFFEF23C05E
:1004F600DE0116960E94AD038D010E948E03EE83E7
:10050600FF83E0E0E887E987DE011A960E94AD03E3
:100516000E94E003FA93EA931A930A93E8EFF0E055
:10052600FA93EA93DE011A96A0DE9F01AE81BF819F
:10053600E0E0EC93F9010E94F6032A96FF900895F5
:10054600AA93E5B3EF70AE2FE881E07FEA2BE5BB17
:1005560085E08A95F1F7AA9A8DE08A95F1F7AA982F
:100566008DE08A95F1F780C0AA93A881E9DFE8813A
:10057600E295E883A881E4DF85E88A95F1F774C0FF
:10058600AA93E881F0E0EA58FD4FE081A981AE0F19
:10059600EBDFC980E881E0937A0222960895A2E013
:1005A6000E949503ACE0E0DFA1E00E949503E0E045
:1005B600E0937A02CE2E0895AA93A881AA3021F05C
:1005C600E0917B02CE1660F0E0E0EA93A0917A0219
:1005D600AF5FA0937A02D4DFA881AA3009F444C0A1
:1005E600C394A89AA881C0DFA8983EC0BA93AA93DC
:1005F6001A93A981BA81ED91A983BA831E2FE0309F
:1006060019F0A12FD9DFF5CF188123960895AA9363
:10061600E4B3E06FE4BBA29AA09AA19AAA98A8981C
:10062600A998E881E0937B02E058E0937802E8819C
:10063600E054E0937902A4E1B0E00E94A3030E9493
:100646009B030E949B030E949B03A0E279DF88EC38
:1006560090E00197F1F7A8E287DFA4E085DFA5E83F
:1006660083DFA6E081DF9BDF21960895BA93AA93E4
:10067600A991B991EE27FF276D91662311F0319666
:10068600FBCF0895BA93AA93AA27BB27E991F991BC
:100696000590002011F01196FBCFFD0108950E94F0
:1006A600C302E0E6F2E0FA93EA9308950E94B503E6
:1006B6000E94E80384E00E946F022896A0E6B2E05A
:1006C6000E94F902A4EFB1E00C94A3032A93AD852E
:1006D600BE85EF85F88909950895E889F9893497E3
:1006E600E88BF98B0895AD85BE85EF85F889099568
:1006F6000895A889B98914960E94E003EE83FF83C2
:10070600AE81BF810895A889B98914960E94E00335
:10071600EA87FB870895DE011C960E94AD030E94BE
:10072600E00308950E94B702A3E0B0E00C94A3038F
:10073600A0E30E94A30288EC90E00197F1F70895E8
:10074600109639F080ED97E00197F1F7A89511978B
:10075600C9F708950024AF0DB01D0895F195E195F0
:10076600F04008956F2F660F660B762F08950024CC
:10077600112490E1AA0FBB1F001C111C0E1A1F0AA0
:1007860018F40E0E1F1E01C0A1609A9599F7FD017F
:10079600D001089504D0EBDF0EF4E0DF0895E8946D
:1007A600F7FF02C0DBDF6894B7FF06C0A095B095DF
:1007B600119600F8039400FA0895ED91FC911197B3
:1007C60008950590F491E02D08957A936A93FA932B
:1007D600EA9308955A934A933A932A931A930A935B
:1007E60008955D814C813B812A8119810881089594
:00000001FF
